{
  "contractName": "ERC721Connector",
  "abi": [
    {
      "inputs": [
        {
          "internalType": "string",
          "name": "name",
          "type": "string"
        },
        {
          "internalType": "string",
          "name": "symbol",
          "type": "string"
        }
      ],
      "stateMutability": "nonpayable",
      "type": "constructor"
    },
    {
      "anonymous": false,
      "inputs": [
        {
          "indexed": true,
          "internalType": "address",
          "name": "from",
          "type": "address"
        },
        {
          "indexed": true,
          "internalType": "address",
          "name": "to",
          "type": "address"
        },
        {
          "indexed": true,
          "internalType": "uint256",
          "name": "tokenId",
          "type": "uint256"
        }
      ],
      "name": "Transfer",
      "type": "event"
    },
    {
      "inputs": [
        {
          "internalType": "address",
          "name": "_owner",
          "type": "address"
        }
      ],
      "name": "balanceOf",
      "outputs": [
        {
          "internalType": "uint256",
          "name": "",
          "type": "uint256"
        }
      ],
      "stateMutability": "view",
      "type": "function"
    },
    {
      "inputs": [],
      "name": "name",
      "outputs": [
        {
          "internalType": "string",
          "name": "",
          "type": "string"
        }
      ],
      "stateMutability": "view",
      "type": "function"
    },
    {
      "inputs": [
        {
          "internalType": "uint256",
          "name": "_tokenId",
          "type": "uint256"
        }
      ],
      "name": "ownerOf",
      "outputs": [
        {
          "internalType": "address",
          "name": "",
          "type": "address"
        }
      ],
      "stateMutability": "view",
      "type": "function"
    },
    {
      "inputs": [],
      "name": "symbol",
      "outputs": [
        {
          "internalType": "string",
          "name": "",
          "type": "string"
        }
      ],
      "stateMutability": "view",
      "type": "function"
    },
    {
      "inputs": [
        {
          "internalType": "uint256",
          "name": "index",
          "type": "uint256"
        }
      ],
      "name": "tokenByIndex",
      "outputs": [
        {
          "internalType": "uint256",
          "name": "",
          "type": "uint256"
        }
      ],
      "stateMutability": "view",
      "type": "function"
    },
    {
      "inputs": [
        {
          "internalType": "address",
          "name": "owner",
          "type": "address"
        },
        {
          "internalType": "uint256",
          "name": "index",
          "type": "uint256"
        }
      ],
      "name": "tokenOfOwnerByIndex",
      "outputs": [
        {
          "internalType": "uint256",
          "name": "",
          "type": "uint256"
        }
      ],
      "stateMutability": "view",
      "type": "function"
    }
  ],
  "bytecode": "0x60806040523480156200001157600080fd5b5060405162000db938038062000db98339818101604052810190620000379190620002c2565b818181600090805190602001906200005192919062000075565b5080600190805190602001906200006a92919062000075565b5050505050620003ac565b828054620000839062000376565b90600052602060002090601f016020900481019282620000a75760008555620000f3565b82601f10620000c257805160ff1916838001178555620000f3565b82800160010185558215620000f3579182015b82811115620000f2578251825591602001919060010190620000d5565b5b50905062000102919062000106565b5090565b5b808211156200012157600081600090555060010162000107565b5090565b6000604051905090565b600080fd5b600080fd5b600080fd5b600080fd5b6000601f19601f8301169050919050565b7f4e487b7100000000000000000000000000000000000000000000000000000000600052604160045260246000fd5b6200018e8262000143565b810181811067ffffffffffffffff82111715620001b057620001af62000154565b5b80604052505050565b6000620001c562000125565b9050620001d3828262000183565b919050565b600067ffffffffffffffff821115620001f657620001f562000154565b5b620002018262000143565b9050602081019050919050565b60005b838110156200022e57808201518184015260208101905062000211565b838111156200023e576000848401525b50505050565b60006200025b6200025584620001d8565b620001b9565b9050828152602081018484840111156200027a57620002796200013e565b5b620002878482856200020e565b509392505050565b600082601f830112620002a757620002a662000139565b5b8151620002b984826020860162000244565b91505092915050565b60008060408385031215620002dc57620002db6200012f565b5b600083015167ffffffffffffffff811115620002fd57620002fc62000134565b5b6200030b858286016200028f565b925050602083015167ffffffffffffffff8111156200032f576200032e62000134565b5b6200033d858286016200028f565b9150509250929050565b7f4e487b7100000000000000000000000000000000000000000000000000000000600052602260045260246000fd5b600060028204905060018216806200038f57607f821691505b60208210811415620003a657620003a562000347565b5b50919050565b6109fd80620003bc6000396000f3fe608060405234801561001057600080fd5b50600436106100625760003560e01c806306fdde03146100675780632f745c59146100855780634f6ccce7146100b55780636352211e146100e557806370a082311461011557806395d89b4114610145575b600080fd5b61006f610163565b60405161007c91906105b8565b60405180910390f35b61009f600480360381019061009a9190610673565b6101f5565b6040516100ac91906106c2565b60405180910390f35b6100cf60048036038101906100ca91906106dd565b6102a5565b6040516100dc91906106c2565b60405180910390f35b6100ff60048036038101906100fa91906106dd565b610316565b60405161010c9190610719565b60405180910390f35b61012f600480360381019061012a9190610734565b6103c8565b60405161013c91906106c2565b60405180910390f35b61014d610480565b60405161015a91906105b8565b60405180910390f35b60606000805461017290610790565b80601f016020809104026020016040519081016040528092919081815260200182805461019e90610790565b80156101eb5780601f106101c0576101008083540402835291602001916101eb565b820191906000526020600020905b8154815290600101906020018083116101ce57829003601f168201915b5050505050905090565b6000610200836103c8565b8210610241576040517f08c379a00000000000000000000000000000000000000000000000000000000081526004016102389061080e565b60405180910390fd5b600660008473ffffffffffffffffffffffffffffffffffffffff1673ffffffffffffffffffffffffffffffffffffffff16815260200190815260200160002082815481106102925761029161082e565b5b9060005260206000200154905092915050565b60006102af610512565b82106102f0576040517f08c379a00000000000000000000000000000000000000000000000000000000081526004016102e7906108a9565b60405180910390fd5b600482815481106103045761030361082e565b5b90600052602060002001549050919050565b6000806002600084815260200190815260200160002060009054906101000a900473ffffffffffffffffffffffffffffffffffffffff169050600073ffffffffffffffffffffffffffffffffffffffff168173ffffffffffffffffffffffffffffffffffffffff1614156103bf576040517f08c379a00000000000000000000000000000000000000000000000000000000081526004016103b69061093b565b60405180910390fd5b80915050919050565b60008073ffffffffffffffffffffffffffffffffffffffff168273ffffffffffffffffffffffffffffffffffffffff161415610439576040517f08c379a0000000000000000000000000000000000000000000000000000000008152600401610430906109a7565b60405180910390fd5b600360008373ffffffffffffffffffffffffffffffffffffffff1673ffffffffffffffffffffffffffffffffffffffff168152602001908152602001600020549050919050565b60606001805461048f90610790565b80601f01602080910402602001604051908101604052809291908181526020018280546104bb90610790565b80156105085780601f106104dd57610100808354040283529160200191610508565b820191906000526020600020905b8154815290600101906020018083116104eb57829003601f168201915b5050505050905090565b6000600480549050905090565b600081519050919050565b600082825260208201905092915050565b60005b8381101561055957808201518184015260208101905061053e565b83811115610568576000848401525b50505050565b6000601f19601f8301169050919050565b600061058a8261051f565b610594818561052a565b93506105a481856020860161053b565b6105ad8161056e565b840191505092915050565b600060208201905081810360008301526105d2818461057f565b905092915050565b600080fd5b600073ffffffffffffffffffffffffffffffffffffffff82169050919050565b600061060a826105df565b9050919050565b61061a816105ff565b811461062557600080fd5b50565b60008135905061063781610611565b92915050565b6000819050919050565b6106508161063d565b811461065b57600080fd5b50565b60008135905061066d81610647565b92915050565b6000806040838503121561068a576106896105da565b5b600061069885828601610628565b92505060206106a98582860161065e565b9150509250929050565b6106bc8161063d565b82525050565b60006020820190506106d760008301846106b3565b92915050565b6000602082840312156106f3576106f26105da565b5b60006107018482850161065e565b91505092915050565b610713816105ff565b82525050565b600060208201905061072e600083018461070a565b92915050565b60006020828403121561074a576107496105da565b5b600061075884828501610628565b91505092915050565b7f4e487b7100000000000000000000000000000000000000000000000000000000600052602260045260246000fd5b600060028204905060018216806107a857607f821691505b602082108114156107bc576107bb610761565b5b50919050565b7f6f776e657220696e646578206973206f7574206f6620626f756e647321000000600082015250565b60006107f8601d8361052a565b9150610803826107c2565b602082019050919050565b60006020820190508181036000830152610827816107eb565b9050919050565b7f4e487b7100000000000000000000000000000000000000000000000000000000600052603260045260246000fd5b7f676c6f62616c20696e646578206973206f7574206f6620626f756e6473210000600082015250565b6000610893601e8361052a565b915061089e8261085d565b602082019050919050565b600060208201905081810360008301526108c281610886565b9050919050565b7f6f776e657220717565727920666f72206e6f6e2d6578697374656e7420746f6b60008201527f656e000000000000000000000000000000000000000000000000000000000000602082015250565b600061092560228361052a565b9150610930826108c9565b604082019050919050565b6000602082019050818103600083015261095481610918565b9050919050565b7f4552524f523a20446f6e2774207065726d6974207a65726f2061646472657373600082015250565b600061099160208361052a565b915061099c8261095b565b602082019050919050565b600060208201905081810360008301526109c081610984565b905091905056fea2646970667358221220f0ebf789d1d79919ea5cea06bd1a84f6cc7148dc379f9956e87286db400454f864736f6c634300080a0033",
  "immutableReferences": {},
  "source": "// SPDX-License-Identifier: MIT\npragma solidity ^0.8.0;\n\nimport './ERC721Metadata.sol';\nimport './ERC721Enumerable.sol';\n\n\ncontract ERC721Connector is ERC721Metadata, ERC721Enumberalbe {\n\n    constructor(string memory name, string memory symbol) ERC721Metadata(name,symbol){\n        \n    }\n\n}",
  "sourcePath": "/Users/jdkim/Desktop/Project/nft-marketplace-starter-kit/src/contracts/ERC721Connector.sol",
  "compiler": {
    "name": "solc",
    "version": "0.8.10+commit.fc410830.Emscripten.clang"
  },
  "schemaVersion": "3.4.3",
  "updatedAt": "2021-12-10T18:14:29.682Z",
  "devdoc": {
    "kind": "dev",
    "methods": {
      "balanceOf(address)": {
        "details": "NFTs assigned to the zero address are considered invalid, and this  function throws for queries about the zero address.",
        "params": {
          "_owner": "An address for whom to query the balance"
        },
        "returns": {
          "_0": "The number of NFTs owned by `_owner`, possibly zero"
        }
      },
      "ownerOf(uint256)": {
        "details": "NFTs assigned to zero address are considered invalid, and queries  about them do throw.",
        "params": {
          "_tokenId": "The identifier for an NFT"
        },
        "returns": {
          "_0": "The address of the owner of the NFT"
        }
      }
    },
    "version": 1
  },
  "userdoc": {
    "kind": "user",
    "methods": {
      "balanceOf(address)": {
        "notice": "Count all NFTs assigned to an owner"
      },
      "ownerOf(uint256)": {
        "notice": "Find the owner of an NFT"
      }
    },
    "version": 1
  }
}